{
  "_format": "hh-sol-artifact-1",
  "contractName": "AriaNFT",
  "sourceName": "contracts/AriaNFT.sol",
  "abi": [
    {
      "inputs": [],
      "stateMutability": "nonpayable",
      "type": "constructor"
    },
    {
      "anonymous": false,
      "inputs": [
        {
          "indexed": true,
          "internalType": "address",
          "name": "owner",
          "type": "address"
        },
        {
          "indexed": true,
          "internalType": "address",
          "name": "approved",
          "type": "address"
        },
        {
          "indexed": true,
          "internalType": "uint256",
          "name": "tokenId",
          "type": "uint256"
        }
      ],
      "name": "Approval",
      "type": "event"
    },
    {
      "anonymous": false,
      "inputs": [
        {
          "indexed": true,
          "internalType": "address",
          "name": "owner",
          "type": "address"
        },
        {
          "indexed": true,
          "internalType": "address",
          "name": "operator",
          "type": "address"
        },
        {
          "indexed": false,
          "internalType": "bool",
          "name": "approved",
          "type": "bool"
        }
      ],
      "name": "ApprovalForAll",
      "type": "event"
    },
    {
      "anonymous": false,
      "inputs": [
        {
          "indexed": true,
          "internalType": "address",
          "name": "user",
          "type": "address"
        },
        {
          "indexed": false,
          "internalType": "enum AriaNFT.KYCLevel",
          "name": "level",
          "type": "uint8"
        },
        {
          "indexed": false,
          "internalType": "string",
          "name": "ipfsHash",
          "type": "string"
        }
      ],
      "name": "KYCRegistered",
      "type": "event"
    },
    {
      "anonymous": false,
      "inputs": [
        {
          "indexed": true,
          "internalType": "address",
          "name": "previousOwner",
          "type": "address"
        },
        {
          "indexed": true,
          "internalType": "address",
          "name": "newOwner",
          "type": "address"
        }
      ],
      "name": "OwnershipTransferred",
      "type": "event"
    },
    {
      "anonymous": false,
      "inputs": [
        {
          "indexed": true,
          "internalType": "address",
          "name": "from",
          "type": "address"
        },
        {
          "indexed": true,
          "internalType": "address",
          "name": "to",
          "type": "address"
        },
        {
          "indexed": true,
          "internalType": "uint256",
          "name": "tokenId",
          "type": "uint256"
        }
      ],
      "name": "Transfer",
      "type": "event"
    },
    {
      "inputs": [
        {
          "internalType": "address",
          "name": "to",
          "type": "address"
        },
        {
          "internalType": "uint256",
          "name": "tokenId",
          "type": "uint256"
        }
      ],
      "name": "approve",
      "outputs": [],
      "stateMutability": "nonpayable",
      "type": "function"
    },
    {
      "inputs": [
        {
          "internalType": "address",
          "name": "owner",
          "type": "address"
        }
      ],
      "name": "balanceOf",
      "outputs": [
        {
          "internalType": "uint256",
          "name": "",
          "type": "uint256"
        }
      ],
      "stateMutability": "view",
      "type": "function"
    },
    {
      "inputs": [
        {
          "internalType": "uint256",
          "name": "tokenId",
          "type": "uint256"
        }
      ],
      "name": "getApproved",
      "outputs": [
        {
          "internalType": "address",
          "name": "",
          "type": "address"
        }
      ],
      "stateMutability": "view",
      "type": "function"
    },
    {
      "inputs": [
        {
          "internalType": "address",
          "name": "owner",
          "type": "address"
        },
        {
          "internalType": "address",
          "name": "operator",
          "type": "address"
        }
      ],
      "name": "isApprovedForAll",
      "outputs": [
        {
          "internalType": "bool",
          "name": "",
          "type": "bool"
        }
      ],
      "stateMutability": "view",
      "type": "function"
    },
    {
      "inputs": [
        {
          "internalType": "address",
          "name": "",
          "type": "address"
        }
      ],
      "name": "kycDocuments",
      "outputs": [
        {
          "internalType": "string",
          "name": "",
          "type": "string"
        }
      ],
      "stateMutability": "view",
      "type": "function"
    },
    {
      "inputs": [
        {
          "internalType": "address",
          "name": "",
          "type": "address"
        }
      ],
      "name": "kycStatus",
      "outputs": [
        {
          "internalType": "enum AriaNFT.KYCLevel",
          "name": "",
          "type": "uint8"
        }
      ],
      "stateMutability": "view",
      "type": "function"
    },
    {
      "inputs": [
        {
          "internalType": "address",
          "name": "to",
          "type": "address"
        },
        {
          "internalType": "string",
          "name": "ipfsHash",
          "type": "string"
        },
        {
          "internalType": "string",
          "name": "documentType",
          "type": "string"
        }
      ],
      "name": "mintRWA",
      "outputs": [
        {
          "internalType": "uint256",
          "name": "",
          "type": "uint256"
        }
      ],
      "stateMutability": "nonpayable",
      "type": "function"
    },
    {
      "inputs": [],
      "name": "name",
      "outputs": [
        {
          "internalType": "string",
          "name": "",
          "type": "string"
        }
      ],
      "stateMutability": "view",
      "type": "function"
    },
    {
      "inputs": [],
      "name": "owner",
      "outputs": [
        {
          "internalType": "address",
          "name": "",
          "type": "address"
        }
      ],
      "stateMutability": "view",
      "type": "function"
    },
    {
      "inputs": [
        {
          "internalType": "uint256",
          "name": "tokenId",
          "type": "uint256"
        }
      ],
      "name": "ownerOf",
      "outputs": [
        {
          "internalType": "address",
          "name": "",
          "type": "address"
        }
      ],
      "stateMutability": "view",
      "type": "function"
    },
    {
      "inputs": [
        {
          "internalType": "string",
          "name": "ipfsHash",
          "type": "string"
        },
        {
          "internalType": "enum AriaNFT.KYCLevel",
          "name": "level",
          "type": "uint8"
        }
      ],
      "name": "registerKYC",
      "outputs": [],
      "stateMutability": "nonpayable",
      "type": "function"
    },
    {
      "inputs": [],
      "name": "renounceOwnership",
      "outputs": [],
      "stateMutability": "nonpayable",
      "type": "function"
    },
    {
      "inputs": [
        {
          "internalType": "address",
          "name": "to",
          "type": "address"
        },
        {
          "internalType": "string",
          "name": "ipfsHash",
          "type": "string"
        }
      ],
      "name": "safeMint",
      "outputs": [
        {
          "internalType": "uint256",
          "name": "",
          "type": "uint256"
        }
      ],
      "stateMutability": "nonpayable",
      "type": "function"
    },
    {
      "inputs": [
        {
          "internalType": "address",
          "name": "from",
          "type": "address"
        },
        {
          "internalType": "address",
          "name": "to",
          "type": "address"
        },
        {
          "internalType": "uint256",
          "name": "tokenId",
          "type": "uint256"
        }
      ],
      "name": "safeTransferFrom",
      "outputs": [],
      "stateMutability": "nonpayable",
      "type": "function"
    },
    {
      "inputs": [
        {
          "internalType": "address",
          "name": "from",
          "type": "address"
        },
        {
          "internalType": "address",
          "name": "to",
          "type": "address"
        },
        {
          "internalType": "uint256",
          "name": "tokenId",
          "type": "uint256"
        },
        {
          "internalType": "bytes",
          "name": "data",
          "type": "bytes"
        }
      ],
      "name": "safeTransferFrom",
      "outputs": [],
      "stateMutability": "nonpayable",
      "type": "function"
    },
    {
      "inputs": [
        {
          "internalType": "address",
          "name": "operator",
          "type": "address"
        },
        {
          "internalType": "bool",
          "name": "approved",
          "type": "bool"
        }
      ],
      "name": "setApprovalForAll",
      "outputs": [],
      "stateMutability": "nonpayable",
      "type": "function"
    },
    {
      "inputs": [
        {
          "internalType": "address",
          "name": "_yieldDistributor",
          "type": "address"
        }
      ],
      "name": "setYieldDistributor",
      "outputs": [],
      "stateMutability": "nonpayable",
      "type": "function"
    },
    {
      "inputs": [
        {
          "internalType": "bytes4",
          "name": "interfaceId",
          "type": "bytes4"
        }
      ],
      "name": "supportsInterface",
      "outputs": [
        {
          "internalType": "bool",
          "name": "",
          "type": "bool"
        }
      ],
      "stateMutability": "view",
      "type": "function"
    },
    {
      "inputs": [],
      "name": "symbol",
      "outputs": [
        {
          "internalType": "string",
          "name": "",
          "type": "string"
        }
      ],
      "stateMutability": "view",
      "type": "function"
    },
    {
      "inputs": [
        {
          "internalType": "uint256",
          "name": "tokenId",
          "type": "uint256"
        }
      ],
      "name": "tokenURI",
      "outputs": [
        {
          "internalType": "string",
          "name": "",
          "type": "string"
        }
      ],
      "stateMutability": "view",
      "type": "function"
    },
    {
      "inputs": [
        {
          "internalType": "address",
          "name": "from",
          "type": "address"
        },
        {
          "internalType": "address",
          "name": "to",
          "type": "address"
        },
        {
          "internalType": "uint256",
          "name": "tokenId",
          "type": "uint256"
        }
      ],
      "name": "transferFrom",
      "outputs": [],
      "stateMutability": "nonpayable",
      "type": "function"
    },
    {
      "inputs": [
        {
          "internalType": "address",
          "name": "newOwner",
          "type": "address"
        }
      ],
      "name": "transferOwnership",
      "outputs": [],
      "stateMutability": "nonpayable",
      "type": "function"
    },
    {
      "inputs": [],
      "name": "yieldDistributor",
      "outputs": [
        {
          "internalType": "address",
          "name": "",
          "type": "address"
        }
      ],
      "stateMutability": "view",
      "type": "function"
    }
  ],
  "bytecode": "0x60803462000356576001600160401b0390604081810183811183821017620003405781526008825260209167415249412052574160c01b83820152815193828501858110828211176200034057835260048552634152574160e01b84860152815181811162000340576000948554916001948584811c9416801562000335575b8385101462000321578190601f94858111620002ce575b5083908583116001146200026a5789926200025e575b5050600019600383901b1c191690851b1786555b86519283116200024a5783548481811c911680156200023f575b828210146200022b57828111620001e3575b50809183116001146200017c57508495829394959262000170575b5050600019600383901b1c191690821b1790555b60068054336001600160a01b03198216811790925591519290916001600160a01b0316907f8be0079c531659141344cd1fd0a4f28419497f9722a3daafe3b4186f6b6457e09080a36119c390816200035c8239f35b01519050388062000107565b90601f198316968487528287209287905b898210620001cb575050838596979810620001b1575b505050811b0190556200011b565b015160001960f88460031b161c19169055388080620001a3565b8087859682949686015181550195019301906200018d565b8487528187208380860160051c82019284871062000221575b0160051c019085905b82811062000215575050620000ec565b88815501859062000205565b92508192620001fc565b634e487b7160e01b87526022600452602487fd5b90607f1690620000da565b634e487b7160e01b86526041600452602486fd5b015190503880620000ac565b898052848a208894509190601f1984168b5b87828210620002b757505084116200029d575b505050811b018655620000c0565b015160001960f88460031b161c191690553880806200028f565b8385015186558b979095019493840193016200027c565b9091508880528389208580850160051c82019286861062000317575b918991869594930160051c01915b8281106200030857505062000096565b8b8155859450899101620002f8565b92508192620002ea565b634e487b7160e01b88526022600452602488fd5b93607f16936200007f565b634e487b7160e01b600052604160045260246000fd5b600080fdfe6080604081815260048036101561001557600080fd5b600092833560e01c90816301ffc9a714610ce05750806306fdde0314610c38578063081812fc14610c18578063095ea7b314610aab57806323b872dd14610a865780633038a60d14610a465780633053d4a014610a0b5780634113aac6146109a957806342842e0e1461097557806342d803701461075157806346cc599e1461070d5780636352211e146106dc57806370a0823114610646578063715018a6146105e95780638da5cb5b146105c057806395d89b41146104dd578063a22cb4651461040e578063a38c2c3d146103e5578063b88d4fde14610357578063c87b56dd146102f3578063d204c45e1461023b578063e985e9c5146101e95763f2fde38b1461012057600080fd5b346101e55760203660031901126101e557610139610d8c565b90610142610fd6565b6001600160a01b03918216928315610193575050600654826001600160601b0360a01b821617600655167f8be0079c531659141344cd1fd0a4f28419497f9722a3daafe3b4186f6b6457e08380a380f35b906020608492519162461bcd60e51b8352820152602660248201527f4f776e61626c653a206e6577206f776e657220697320746865207a65726f206160448201526564647265737360d01b6064820152fd5b8280fd5b50503461023757806003193601126102375760ff81602093610209610d8c565b610211610da7565b6001600160a01b0391821683526005875283832091168252855220549151911615158152f35b5080fd5b5091346102f057816003193601126102f057610255610d8c565b9060243567ffffffffffffffff8111610237576102759036908601610f95565b9061027e610fd6565b6001600160a01b038316815260096020528381205460ff1690858210156102dd576020856102d686866102b4600188101561152e565b8351916102c083610e5e565b6005835264105cdcd95d60da1b8684015261157a565b9051908152f35b634e487b7160e01b815260218652602490fd5b80fd5b50346101e55760203660031901126101e5573560008181526002602052604090205461035393610340928492610333906001600160a01b0316151561102e565b8152600860205220610e9c565b9051918291602083526020830190610d4c565b0390f35b83823461023757608036600319011261023757610372610d8c565b9061037b610da7565b916044356064359367ffffffffffffffff85116103e157366023860112156103e1576103b66103d9948660246103de98369301359101610f5e565b926103c96103c484336111b4565b6110db565b6103d483838361127c565b6114a7565b611190565b80f35b8580fd5b505034610237578160031936011261023757600b5490516001600160a01b039091168152602090f35b5090346101e557806003193601126101e557610428610d8c565b90602435918215158093036104d9576001600160a01b0316923384146104975750338452600560205280842083855260205280842060ff1981541660ff8416179055519081527f17307eab39ab6107e8899845ad3d59bd9653f200f220920489ca2b5937696c3160203392a380f35b6020606492519162461bcd60e51b8352820152601960248201527f4552433732313a20617070726f766520746f2063616c6c6572000000000000006044820152fd5b8480fd5b50503461023757816003193601126102375780519082600180549161050183610df2565b80865292828116908115610598575060011461053c575b50505061052a82610353940383610e7a565b51918291602083526020830190610d4c565b94508085527fb10e2d527612073b26eecdfd717e6a320cf44b4afac2b0732d9fcbe2b7fa0cf65b8286106105805750505061052a8260206103539582010194610518565b80546020878701810191909152909501948101610563565b61035397508693506020925061052a94915060ff191682840152151560051b82010194610518565b50503461023757816003193601126102375760065490516001600160a01b039091168152602090f35b83346102f057806003193601126102f057610602610fd6565b600680546001600160a01b0319811690915581906001600160a01b03167f8be0079c531659141344cd1fd0a4f28419497f9722a3daafe3b4186f6b6457e08280a380f35b50829034610237576020366003190112610237576001600160a01b0361066a610d8c565b169081156106875760208480858581526003845220549051908152f35b608490602085519162461bcd60e51b8352820152602960248201527f4552433732313a2061646472657373207a65726f206973206e6f7420612076616044820152683634b21037bbb732b960b91b6064820152fd5b5091346102f05760203660031901126102f057506106fc6020923561107a565b90516001600160a01b039091168152f35b5050346102375760203660031901126102375760209161074f9060ff9083906001600160a01b0361073c610d8c565b1681526009865220541691518092610fb3565bf35b5091903461023757806003193601126102375767ffffffffffffffff928035848111610971576107849036908301610f95565b60243591808310156104d957821561093a573385526020906009825284862060ff1981541660ff8616179055600a825284862090835197881161092757506107cc8154610df2565b601f81116108e4575b508196601f811160011461085857946108479261083a959492877f301eee4eb38f51dc599207e0a1ed6754616da4acc3497c9686831b622c06c1f4988a9b859b9161084d575b508160011b916000199060031b1c19161790555b815195868096610fb3565b8401523395830190610d4c565b0390a280f35b90508501513861081b565b818752828720601f198216885b8181106108cd57509260018361084796938a9b9c7f301eee4eb38f51dc599207e0a1ed6754616da4acc3497c9686831b622c06c1f49b9661083a9b9a98106108b4575b5050811b01905561082f565b87015160001960f88460031b161c1916905538806108a8565b868b01518355998501996001909201918501610865565b818752828720601f890160051c810191848a1061091d575b601f0160051c01905b81811061091257506107d5565b878155600101610905565b90915081906108fc565b634e487b7160e01b875260419052602486fd5b606490602085519162461bcd60e51b83528201526011602482015270125b9d985b1a590812d650c81b195d995b607a1b6044820152fd5b8380fd5b505034610237576103d96103de9161098c36610dbd565b9192519261099984610e2c565b8684526103c96103c484336111b4565b5091346102f05760603660031901126102f0576109c4610d8c565b9267ffffffffffffffff602435818111610971576109e59036908401610f95565b926044359182116102f0575091610a05602095926102d694369101610f95565b9161157a565b50503461023757602036600319011261023757610353916103409082906001600160a01b03610a38610d8c565b168152600a60205220610e9c565b83346102f05760203660031901126102f057610a60610d8c565b610a68610fd6565b60018060a01b03166001600160601b0360a01b600b541617600b5580f35b83346102f0576103de610a9836610dbd565b91610aa66103c484336111b4565b61127c565b50346101e557816003193601126101e557610ac4610d8c565b6024359290916001600160a01b0391908280610adf8761107a565b16941693808514610bcb57803314908115610bac575b5015610b4457848652602052842080546001600160a01b03191683179055610b1c8361107a565b167f8c5be1e5ebec7d5bd14f71427d1e84f3dd0314c0f7b2291e5b200ac8c7c3b9258480a480f35b6020608492519162461bcd60e51b8352820152603d60248201527f4552433732313a20617070726f76652063616c6c6572206973206e6f7420746f60448201527f6b656e206f776e6572206f7220617070726f76656420666f7220616c6c0000006064820152fd5b90508652600560205281862033875260205260ff828720541638610af5565b506020608492519162461bcd60e51b8352820152602160248201527f4552433732313a20617070726f76616c20746f2063757272656e74206f776e656044820152603960f91b6064820152fd5b5091346102f05760203660031901126102f057506106fc6020923561109d565b505034610237578160031936011261023757805190828054610c5981610df2565b808552916001918083169081156105985750600114610c845750505061052a82610353940383610e7a565b80809650527f290decd9548b62a8d60345a988386fc84ba6bc95484008f6362f93160ef3e5635b828610610cc85750505061052a8260206103539582010194610518565b80546020878701810191909152909501948101610cab565b925050346101e55760203660031901126101e5573563ffffffff60e01b81168091036101e557602092506380ac58cd60e01b8114908115610d3b575b8115610d2a575b5015158152f35b6301ffc9a760e01b14905038610d23565b635b5e139f60e01b81149150610d1c565b919082519283825260005b848110610d78575050826000602080949584010152601f8019910116010190565b602081830181015184830182015201610d57565b600435906001600160a01b0382168203610da257565b600080fd5b602435906001600160a01b0382168203610da257565b6060906003190112610da2576001600160a01b03906004358281168103610da257916024359081168103610da2579060443590565b90600182811c92168015610e22575b6020831014610e0c57565b634e487b7160e01b600052602260045260246000fd5b91607f1691610e01565b6020810190811067ffffffffffffffff821117610e4857604052565b634e487b7160e01b600052604160045260246000fd5b6040810190811067ffffffffffffffff821117610e4857604052565b90601f8019910116810190811067ffffffffffffffff821117610e4857604052565b9060405191826000825492610eb084610df2565b908184526001948581169081600014610f1f5750600114610edc575b5050610eda92500383610e7a565b565b9093915060005260209081600020936000915b818310610f07575050610eda93508201013880610ecc565b85548884018501529485019487945091830191610eef565b915050610eda94506020925060ff191682840152151560051b8201013880610ecc565b67ffffffffffffffff8111610e4857601f01601f191660200190565b929192610f6a82610f42565b91610f786040519384610e7a565b829481845281830111610da2578281602093846000960137010152565b9080601f83011215610da257816020610fb093359101610f5e565b90565b906004821015610fc05752565b634e487b7160e01b600052602160045260246000fd5b6006546001600160a01b03163303610fea57565b606460405162461bcd60e51b815260206004820152602060248201527f4f776e61626c653a2063616c6c6572206973206e6f7420746865206f776e65726044820152fd5b1561103557565b60405162461bcd60e51b815260206004820152601860248201527f4552433732313a20696e76616c696420746f6b656e20494400000000000000006044820152606490fd5b6000908152600260205260409020546001600160a01b0316610fb081151561102e565b6000818152600260205260409020546110c0906001600160a01b0316151561102e565b6000908152600460205260409020546001600160a01b031690565b156110e257565b60405162461bcd60e51b815260206004820152602d60248201527f4552433732313a2063616c6c6572206973206e6f7420746f6b656e206f776e6560448201526c1c881bdc88185c1c1c9bdd9959609a1b6064820152608490fd5b60809060208152603260208201527f4552433732313a207472616e7366657220746f206e6f6e20455243373231526560408201527131b2b4bb32b91034b6b83632b6b2b73a32b960711b60608201520190565b1561119757565b60405162461bcd60e51b8152806111b06004820161113d565b0390fd5b906001600160a01b0380806111c88461107a565b169316918383149384156111fb575b5083156111e5575b50505090565b6111f19192935061109d565b16143880806111df565b909350600052600560205260406000208260005260205260ff6040600020541692386111d7565b1561122957565b60405162461bcd60e51b815260206004820152602560248201527f4552433732313a207472616e736665722066726f6d20696e636f72726563742060448201526437bbb732b960d91b6064820152608490fd5b906112a49161128a8461107a565b6001600160a01b0393918416928492909183168414611222565b1691821561133c57816112c1916112ba8661107a565b1614611222565b7fddf252ad1be2c89b69c2b068fc378daa952ba7f163c4a11628f55a4df523b3ef60008481526004602052604081206001600160601b0360a01b9081815416905583825260036020526040822060001981540190558482526040822060018154019055858252600260205284604083209182541617905580a4565b60405162461bcd60e51b8152602060048201526024808201527f4552433732313a207472616e7366657220746f20746865207a65726f206164646044820152637265737360e01b6064820152608490fd5b91929091803b1561149e576113da936040519081630a85bd0160e11b9384825233600483015260009687602484015260448301526080606483015281878160209a8b966084830190610d4c565b03926001600160a01b03165af184918161145e575b5061144d575050503d600014611445573d61140981610f42565b906114176040519283610e7a565b81528091833d92013e5b805191826114425760405162461bcd60e51b8152806111b06004820161113d565b01fd5b506060611421565b6001600160e01b0319161492509050565b9091508581813d8311611497575b6114768183610e7a565b810103126104d957516001600160e01b0319811681036104d95790386113ef565b503d61146c565b50915050600190565b92939190803b15611524576114f9946040518092630a85bd0160e11b9485835233600484015260018060a01b03809816602484015260448301526080606483015281806020998a956084830190610d4c565b03916000988991165af184918161145e575061144d575050503d600014611445573d61140981610f42565b5050915050600190565b1561153557565b60405162461bcd60e51b815260206004820152601960248201527f4b594320766572696669636174696f6e207265717569726564000000000000006044820152606490fd5b9190611584610fd6565b60018060a01b03908184169060009382855260206009815260409460ff86882054166004958682101561192e576115bf60018093101561152e565b8160075401998a6007558851916115d583610e2c565b8a835280156118ed57918b6103d99281611688958e8e61161361160d85600052600260205260018060a01b0360406000205416151590565b15611941565b600084815260026020526040902054611636906001600160a01b0316151561160d565b82825260038c5280822080548b01905583825260028c52812080546001600160a01b031916831790557fddf252ad1be2c89b69c2b068fc378daa952ba7f163c4a11628f55a4df523b3ef8180a461138d565b8888526008835286882090855167ffffffffffffffff968782116118da576116b08454610df2565b601f8111611894575b508590601f8311600114611835579282939183928d9461182a575b50501b916000199060031b1c19161790555b600b541691826116fb575b5050505050505090565b86918151917f225445ae3fe8de4345b6df2376d9c2f0d4cc4955a44cd40fd54112f9cf6885f982820193842066496e766f69636560c81b848b5161173e81610e5e565b600781520152036117cf575050505066016828ef54c0005b80611762575b806116f1565b813b156103e15785939291604485928751988993849263336bf5f760e01b84528c8985015260248401525af180156117c55761179f575b8061175c565b84116117b2575050523880808080611799565b634e487b7160e01b825260419052602490fd5b84513d85823e3d90fd5b7feb3fac9e396c77fbd10fec59adea733b59ddbd4bb8355cea9a84da848c2357ec926c141c9bdc195c9d1e4811195959609a1b9151902091885161181281610e5e565b600d81520152036117565750658fb33ddfe000611756565b0151925038806116d4565b848c52868c20919083601f1981168e5b8a8883831061187d5750505010611864575b505050811b0190556116e6565b015160001960f88460031b161c19169055388080611857565b868601518855909601959485019487935001611845565b848c52868c20601f840160051c8101918885106118d0575b601f0160051c019084905b8281106118c55750506116b9565b8d81550184906118b7565b90915081906118ac565b634e487b7160e01b8b526041895260248bfd5b60648987808d519262461bcd60e51b845283015260248201527f4552433732313a206d696e7420746f20746865207a65726f20616464726573736044820152fd5b634e487b7160e01b895260218752602489fd5b1561194857565b60405162461bcd60e51b815260206004820152601c60248201527f4552433732313a20746f6b656e20616c7265616479206d696e746564000000006044820152606490fdfea264697066735822122049994927db6ddc49320baa9685597e859ea27e269a8efd558a67da8559a8716964736f6c63430008140033",
  "linkReferences": {},
  "deployedLinkReferences": {}
}