{
  "_format": "hh-sol-artifact-1",
  "contractName": "MockOracle",
  "sourceName": "contracts/MockOracle.sol",
  "abi": [
    {
      "inputs": [
        {
          "internalType": "string",
          "name": "_description",
          "type": "string"
        },
        {
          "internalType": "uint8",
          "name": "_decimals",
          "type": "uint8"
        }
      ],
      "stateMutability": "nonpayable",
      "type": "constructor"
    },
    {
      "anonymous": false,
      "inputs": [
        {
          "indexed": true,
          "internalType": "int256",
          "name": "current",
          "type": "int256"
        },
        {
          "indexed": true,
          "internalType": "uint256",
          "name": "roundId",
          "type": "uint256"
        },
        {
          "indexed": false,
          "internalType": "uint256",
          "name": "updatedAt",
          "type": "uint256"
        }
      ],
      "name": "AnswerUpdated",
      "type": "event"
    },
    {
      "anonymous": false,
      "inputs": [
        {
          "indexed": true,
          "internalType": "address",
          "name": "previousOwner",
          "type": "address"
        },
        {
          "indexed": true,
          "internalType": "address",
          "name": "newOwner",
          "type": "address"
        }
      ],
      "name": "OwnershipTransferred",
      "type": "event"
    },
    {
      "inputs": [],
      "name": "decimals",
      "outputs": [
        {
          "internalType": "uint8",
          "name": "",
          "type": "uint8"
        }
      ],
      "stateMutability": "view",
      "type": "function"
    },
    {
      "inputs": [],
      "name": "description",
      "outputs": [
        {
          "internalType": "string",
          "name": "",
          "type": "string"
        }
      ],
      "stateMutability": "view",
      "type": "function"
    },
    {
      "inputs": [
        {
          "internalType": "string",
          "name": "pair",
          "type": "string"
        }
      ],
      "name": "getLatestPrice",
      "outputs": [
        {
          "internalType": "int256",
          "name": "price",
          "type": "int256"
        },
        {
          "internalType": "uint256",
          "name": "timestamp",
          "type": "uint256"
        }
      ],
      "stateMutability": "view",
      "type": "function"
    },
    {
      "inputs": [],
      "name": "owner",
      "outputs": [
        {
          "internalType": "address",
          "name": "",
          "type": "address"
        }
      ],
      "stateMutability": "view",
      "type": "function"
    },
    {
      "inputs": [
        {
          "internalType": "string",
          "name": "",
          "type": "string"
        }
      ],
      "name": "prices",
      "outputs": [
        {
          "internalType": "int256",
          "name": "",
          "type": "int256"
        }
      ],
      "stateMutability": "view",
      "type": "function"
    },
    {
      "inputs": [],
      "name": "renounceOwnership",
      "outputs": [],
      "stateMutability": "nonpayable",
      "type": "function"
    },
    {
      "inputs": [
        {
          "internalType": "address",
          "name": "newOwner",
          "type": "address"
        }
      ],
      "name": "transferOwnership",
      "outputs": [],
      "stateMutability": "nonpayable",
      "type": "function"
    },
    {
      "inputs": [
        {
          "internalType": "int256",
          "name": "_answer",
          "type": "int256"
        }
      ],
      "name": "updateAnswer",
      "outputs": [],
      "stateMutability": "nonpayable",
      "type": "function"
    },
    {
      "inputs": [
        {
          "internalType": "string",
          "name": "pair",
          "type": "string"
        },
        {
          "internalType": "int256",
          "name": "_price",
          "type": "int256"
        }
      ],
      "name": "updatePrice",
      "outputs": [],
      "stateMutability": "nonpayable",
      "type": "function"
    },
    {
      "inputs": [],
      "name": "version",
      "outputs": [
        {
          "internalType": "uint256",
          "name": "",
          "type": "uint256"
        }
      ],
      "stateMutability": "view",
      "type": "function"
    }
  ],
  "bytecode": "0x6080604052346102755761091a803803806100198161028e565b9283398101906040818303126102755780516001600160401b03929083811161027557820191601f938285850112156102755783519181831161025f57602092601f199561006c85888a8501160161028e565b95828752858383010111610275579084929160005b82811061027a575050826000918701015201519260ff84168094036102755760008054336001600160a01b0319821681178355916001600160a01b03909116907f8be0079c531659141344cd1fd0a4f28419497f9722a3daafe3b4186f6b6457e09080a3805191821161025f576003928354956001968781811c91168015610255575b8382101461023f578881116101f9575b508197841160011461018c57505090806302faf08096602896959493600092610181575b505060001982841b1c191690841b1790555b60ff196002541617600255806004556040519067105492504bd554d160c21b82526008820152205560405161066690816102b48239f35b015190503880610138565b6000858152828120989392918516915b8282106101e25750509686959493919260289793836302faf0809a106101ca575b505050811b01905561014a565b015160001983861b60f8161c191690553880806101bd565b838501518a5598880198938401939081019061019c565b85600052826000208980870160051c820192858810610236575b0160051c019088905b82811061022a575050610114565b6000815501889061021c565b92508192610213565b634e487b7160e01b600052602260045260246000fd5b90607f1690610104565b634e487b7160e01b600052604160045260246000fd5b600080fd5b818101850151888201860152869401610081565b6040519190601f01601f191682016001600160401b0381118382101761025f5760405256fe60406080815260048036101561001457600080fd5b6000803560e01c80632a6327951461045f578063313ce5671461043d57806354fd4d501461041e578063715018a6146103c45780637284e416146102985780638da5cb5b1461026c578063a87a20ce14610201578063c3825f4b146101a3578063f2fde38b146100d55763f66a1b711461008d57600080fd5b346100d25760203660031901126100d25781359067ffffffffffffffff82116100d257506100c6916100c1913691016104ff565b6105d6565b82519182526020820152f35b80fd5b50913461019f57602036600319011261019f576001600160a01b0382358181169391929084900361019b5761010861057e565b831561014957505082546001600160a01b0319811683178455167f8be0079c531659141344cd1fd0a4f28419497f9722a3daafe3b4186f6b6457e08380a380f35b906020608492519162461bcd60e51b8352820152602660248201527f4f776e61626c653a206e6577206f776e657220697320746865207a65726f206160448201526564647265737360d01b6064820152fd5b8480fd5b8280fd5b508290346100d25760203660031901126100d25782359067ffffffffffffffff82116100d2575060206101dd81946101ef933691016104ff565b8184519382858094519384920161055b565b81016001815203019020549051908152f35b50918291346102685760203660031901126102685760207f0559884fd3a460db3073b7fc896cc77986f16e378210ded43186175bf646fc5f91359261024461057e565b836028825167105492504bd554d160c21b815260016008820152205551428152a380f35b5050fd5b508234610294578160031936011261029457905490516001600160a01b039091168152602090f35b5080fd5b508290346100d257806003193601126100d2578151908060035491600183811c918185169485156103ba575b60209889851087146103a7575091839189959388958652868601979081600014610386575060011461032a575b505050610300925003836104c7565b61031c835194859381855251928380928601528585019061055b565b601f01601f19168101030190f35b600381527fc2575a0e9e593c00f959f8c92f12db2869c3395a3b0502d05e2516446f71f85b95935091905b81831061036e57508894505082010161030088806102f1565b85548884018501529485019487945091830191610355565b9250505061030094925060ff19168552151560051b820101869288806102f1565b634e487b7160e01b835260229052602482fd5b92607f16926102c4565b50346100d257806003193601126100d2576103dd61057e565b80546001600160a01b03198116825581906001600160a01b03167f8be0079c531659141344cd1fd0a4f28419497f9722a3daafe3b4186f6b6457e08280a380f35b5091903461019f578260031936011261019f5760209250549051908152f35b50823461029457816003193601126102945760209060ff600254169051908152f35b5091903461019f578160031936011261019f5780359067ffffffffffffffff82116104c3576104966104ad916020933691016104ff565b9261049f61057e565b51928381519384920161055b565b8101906001825260208160243593030190205580f35b8380fd5b90601f8019910116810190811067ffffffffffffffff8211176104e957604052565b634e487b7160e01b600052604160045260246000fd5b81601f820112156105565780359067ffffffffffffffff82116104e95760405192610534601f8401601f1916602001856104c7565b8284526020838301011161055657816000926020809301838601378301015290565b600080fd5b60005b83811061056e5750506000910152565b818101518382015260200161055e565b6000546001600160a01b0316330361059257565b606460405162461bcd60e51b815260206004820152602060248201527f4f776e61626c653a2063616c6c6572206973206e6f7420746865206f776e65726044820152fd5b60405190805191602081818401946105ef81838861055b565b8101600181520301902054610608575050600090600090565b6106209160209160405193849283925192839161055b565b810160018152030190205490429056fea2646970667358221220215345c361db4e593382afcc9d036e2c1f2742cc35003a1ce4164343de28095f64736f6c63430008140033",
  "linkReferences": {},
  "deployedLinkReferences": {}
}