{
  "_format": "hh-sol-artifact-1",
  "contractName": "YieldDistributor",
  "sourceName": "contracts/YieldDistributor.sol",
  "abi": [
    {
      "inputs": [
        {
          "internalType": "address",
          "name": "_ariaNFT",
          "type": "address"
        },
        {
          "internalType": "address",
          "name": "_ariaToken",
          "type": "address"
        },
        {
          "internalType": "address",
          "name": "_fractionalNFT",
          "type": "address"
        }
      ],
      "stateMutability": "nonpayable",
      "type": "constructor"
    },
    {
      "anonymous": false,
      "inputs": [
        {
          "indexed": true,
          "internalType": "address",
          "name": "previousOwner",
          "type": "address"
        },
        {
          "indexed": true,
          "internalType": "address",
          "name": "newOwner",
          "type": "address"
        }
      ],
      "name": "OwnershipTransferred",
      "type": "event"
    },
    {
      "anonymous": false,
      "inputs": [
        {
          "indexed": true,
          "internalType": "uint256",
          "name": "tokenId",
          "type": "uint256"
        },
        {
          "indexed": true,
          "internalType": "address",
          "name": "claimer",
          "type": "address"
        },
        {
          "indexed": false,
          "internalType": "uint256",
          "name": "amount",
          "type": "uint256"
        }
      ],
      "name": "YieldClaimed",
      "type": "event"
    },
    {
      "anonymous": false,
      "inputs": [
        {
          "indexed": true,
          "internalType": "uint256",
          "name": "tokenId",
          "type": "uint256"
        },
        {
          "indexed": false,
          "internalType": "uint256",
          "name": "amount",
          "type": "uint256"
        }
      ],
      "name": "YieldDeposited",
      "type": "event"
    },
    {
      "anonymous": false,
      "inputs": [
        {
          "indexed": true,
          "internalType": "uint256",
          "name": "tokenId",
          "type": "uint256"
        },
        {
          "indexed": false,
          "internalType": "uint256",
          "name": "yieldRate",
          "type": "uint256"
        }
      ],
      "name": "YieldStreamCreated",
      "type": "event"
    },
    {
      "inputs": [],
      "name": "ariaNFT",
      "outputs": [
        {
          "internalType": "contract IERC721",
          "name": "",
          "type": "address"
        }
      ],
      "stateMutability": "view",
      "type": "function"
    },
    {
      "inputs": [],
      "name": "ariaToken",
      "outputs": [
        {
          "internalType": "contract IERC20",
          "name": "",
          "type": "address"
        }
      ],
      "stateMutability": "view",
      "type": "function"
    },
    {
      "inputs": [
        {
          "internalType": "uint256",
          "name": "tokenId",
          "type": "uint256"
        }
      ],
      "name": "claimYield",
      "outputs": [],
      "stateMutability": "nonpayable",
      "type": "function"
    },
    {
      "inputs": [
        {
          "internalType": "uint256",
          "name": "",
          "type": "uint256"
        },
        {
          "internalType": "address",
          "name": "",
          "type": "address"
        }
      ],
      "name": "claimed",
      "outputs": [
        {
          "internalType": "uint256",
          "name": "",
          "type": "uint256"
        }
      ],
      "stateMutability": "view",
      "type": "function"
    },
    {
      "inputs": [
        {
          "internalType": "uint256",
          "name": "tokenId",
          "type": "uint256"
        },
        {
          "internalType": "uint256",
          "name": "yieldRate",
          "type": "uint256"
        }
      ],
      "name": "createYieldStream",
      "outputs": [],
      "stateMutability": "nonpayable",
      "type": "function"
    },
    {
      "inputs": [
        {
          "internalType": "uint256",
          "name": "tokenId",
          "type": "uint256"
        },
        {
          "internalType": "uint256",
          "name": "amount",
          "type": "uint256"
        }
      ],
      "name": "depositYield",
      "outputs": [],
      "stateMutability": "nonpayable",
      "type": "function"
    },
    {
      "inputs": [],
      "name": "fractionalNFT",
      "outputs": [
        {
          "internalType": "contract IFractionalNFT",
          "name": "",
          "type": "address"
        }
      ],
      "stateMutability": "view",
      "type": "function"
    },
    {
      "inputs": [
        {
          "internalType": "uint256",
          "name": "tokenId",
          "type": "uint256"
        }
      ],
      "name": "getYieldStats",
      "outputs": [
        {
          "internalType": "uint256",
          "name": "totalYield",
          "type": "uint256"
        },
        {
          "internalType": "uint256",
          "name": "distributedYield",
          "type": "uint256"
        },
        {
          "internalType": "uint256",
          "name": "yieldRate",
          "type": "uint256"
        },
        {
          "internalType": "bool",
          "name": "active",
          "type": "bool"
        }
      ],
      "stateMutability": "view",
      "type": "function"
    },
    {
      "inputs": [],
      "name": "owner",
      "outputs": [
        {
          "internalType": "address",
          "name": "",
          "type": "address"
        }
      ],
      "stateMutability": "view",
      "type": "function"
    },
    {
      "inputs": [
        {
          "internalType": "uint256",
          "name": "tokenId",
          "type": "uint256"
        }
      ],
      "name": "pauseYieldStream",
      "outputs": [],
      "stateMutability": "nonpayable",
      "type": "function"
    },
    {
      "inputs": [
        {
          "internalType": "uint256",
          "name": "tokenId",
          "type": "uint256"
        },
        {
          "internalType": "address",
          "name": "holder",
          "type": "address"
        }
      ],
      "name": "pendingYield",
      "outputs": [
        {
          "internalType": "uint256",
          "name": "",
          "type": "uint256"
        }
      ],
      "stateMutability": "view",
      "type": "function"
    },
    {
      "inputs": [],
      "name": "renounceOwnership",
      "outputs": [],
      "stateMutability": "nonpayable",
      "type": "function"
    },
    {
      "inputs": [
        {
          "internalType": "uint256",
          "name": "",
          "type": "uint256"
        }
      ],
      "name": "streams",
      "outputs": [
        {
          "internalType": "uint256",
          "name": "totalYield",
          "type": "uint256"
        },
        {
          "internalType": "uint256",
          "name": "distributedYield",
          "type": "uint256"
        },
        {
          "internalType": "uint256",
          "name": "lastUpdateTime",
          "type": "uint256"
        },
        {
          "internalType": "uint256",
          "name": "yieldRate",
          "type": "uint256"
        },
        {
          "internalType": "bool",
          "name": "active",
          "type": "bool"
        }
      ],
      "stateMutability": "view",
      "type": "function"
    },
    {
      "inputs": [
        {
          "internalType": "address",
          "name": "newOwner",
          "type": "address"
        }
      ],
      "name": "transferOwnership",
      "outputs": [],
      "stateMutability": "nonpayable",
      "type": "function"
    }
  ],
  "bytecode": "0x6080346100e057601f610d8f38819003918201601f19168301916001600160401b038311848410176100e5578084926060946040528339810103126100e057610047816100fb565b61005f6040610058602085016100fb565b93016100fb565b600080546001600160a01b03198082163390811784556040519691956001600160a01b0395948694859391908416907f8be0079c531659141344cd1fd0a4f28419497f9722a3daafe3b4186f6b6457e09080a360018055168560025416176002551683600354161760035516906004541617600455610c7f90816101108239f35b600080fd5b634e487b7160e01b600052604160045260246000fd5b51906001600160a01b03821682036100e05756fe608060408181526004918236101561001657600080fd5b600090813560e01c9081630f39ff10146107de57508063120aa8771461079c57806315816bac146106865780631e7c5a901461060e578063336bf5f7146104c15780633a7630da1461048e57806340bd2e23146102ed5780634803d23b146102c457806364d60d911461026c578063715018a6146102125780638da5cb5b146101ea578063967bcbda146101bd578063f2fde38b146100ee5763fc2f3d82146100be57600080fd5b346100eb57816003193601126100eb57506100e46020926100dd610803565b9035610998565b9051908152f35b80fd5b509190346101b95760203660031901126101b9576001600160a01b038235818116939192908490036101b557610122610834565b831561016357505082546001600160a01b0319811683178455167f8be0079c531659141344cd1fd0a4f28419497f9722a3daafe3b4186f6b6457e08380a380f35b906020608492519162461bcd60e51b8352820152602660248201527f4f776e61626c653a206e6577206f776e657220697320746865207a65726f206160448201526564647265737360d01b6064820152fd5b8480fd5b8280fd5b5090346101e657816003193601126101e65760035490516001600160a01b039091168152602090f35b5080fd5b5090346101e657816003193601126101e657905490516001600160a01b039091168152602090f35b50346100eb57806003193601126100eb5761022b610834565b80546001600160a01b03198116825581906001600160a01b03167f8be0079c531659141344cd1fd0a4f28419497f9722a3daafe3b4186f6b6457e08280a380f35b509190346101b95760203660031901126101b9578060a0938335815260056020522080549260018201549260ff6002840154926003850154940154169381519586526020860152840152606083015215156080820152f35b5090346101e657816003193601126101e65760025490516001600160a01b039091168152602090f35b509190346101b95760208060031936011261048a5782359160026001541461044957600260015561031e3384610998565b93841561041457828691858352600682528383203384528252838320610345888254610936565b90558583526005825260018484200161035f888254610936565b9055600354845163a9059cbb60e01b81523392810192909252602482018890529092839160449183916001600160a01b03165af190811561040a577f1448cb68839238fd008abe5bad73d996f9849e020313466fa9f3476d98006df29392916103cf9188916103dd575b506108f8565b519384523393a36001805580f35b6103fd9150843d8611610403575b6103f581836108be565b8101906108e0565b386103c9565b503d6103eb565b82513d88823e3d90fd5b82606492519162461bcd60e51b835282015260116024820152704e6f207969656c6420746f20636c61696d60781b6044820152fd5b5162461bcd60e51b81529283015250601f60248201527f5265656e7472616e637947756172643a207265656e7472616e742063616c6c006044820152606490fd5b8380fd5b509190346101b95760203660031901126101b9576104aa610834565b813583526005602052822001805460ff1916905580f35b509190346101b9576104d23661081e565b84549193909291336001600160a01b0391821614908115610600575b50156105cf57838552600560205260ff818387200154166105955791817f16c752bdcb6d0f47a42c3f3e9858ac70a898d522b6e1dea25ed41c5a490e164e93602093519061053b8261088c565b8782528482019188835283810142815260608201908682526080830194600186528a8c5260058952868c2093518455516001840155516002830155516003820155019051151560ff8019835416911617905551908152a280f35b6020606492519162461bcd60e51b8352820152601560248201527453747265616d20616c72656164792065786973747360581b6044820152fd5b6020606492519162461bcd60e51b8352820152600c60248201526b155b985d5d1a1bdc9a5e995960a21b6044820152fd5b9050600254163314386104ee565b508290346100eb5760203660031901126100eb57826080938492843581526005602052209080519361063f8561088c565b82549485815260ff60018501549283602084015260028601548584015260038601549586606085015201541615159485910152815194855260208501528301526060820152f35b5091346101b9576106963661081e565b8185939293526020916005835260ff81868820015416156107665760035485516323b872dd60e01b81523392810192909252306024830152604482018390528390829060649082908a906001600160a01b03165af190811561075c577fa248d81b377afe8736fe397f5a9f8f0d7c581e67ff6ae4037df29a672a92133b94959161072691889161074557506108f8565b8486526005835280862061073b838254610936565b905551908152a280f35b6103fd9150853d8711610403576103f581836108be565b85513d88823e3d90fd5b845162461bcd60e51b8152908101839052601060248201526f4e6f206163746976652073747265616d60801b6044820152606490fd5b5091346101b957816003193601126101b95760209282916107bb610803565b90358252600685528282206001600160a01b039091168252845220549051908152f35b905083346101b957826003193601126101b957546001600160a01b0316815260209150f35b602435906001600160a01b038216820361081957565b600080fd5b6040906003190112610819576004359060243590565b6000546001600160a01b0316330361084857565b606460405162461bcd60e51b815260206004820152602060248201527f4f776e61626c653a2063616c6c6572206973206e6f7420746865206f776e65726044820152fd5b60a0810190811067ffffffffffffffff8211176108a857604052565b634e487b7160e01b600052604160045260246000fd5b90601f8019910116810190811067ffffffffffffffff8211176108a857604052565b90816020910312610819575180151581036108195790565b156108ff57565b60405162461bcd60e51b815260206004820152600f60248201526e151c985b9cd9995c8819985a5b1959608a1b6044820152606490fd5b9190820180921161094357565b634e487b7160e01b600052601160045260246000fd5b9190820391821161094357565b8181029291811591840414171561094357565b9081602091031261081957516001600160a01b03811681036108195790565b906000908282526020916005835260409182822083516109b78161088c565b81548152600182015490868101918252600283015480878301526003840154906060830191825260ff600480960154161580156080850152610c3c5791610a11610a1892610a09610a20969542610959565b905190610966565b9051610936565b905190610959565b8154855163f306ee0560e01b81528084018990526001600160a01b03949291859187918a908290602490829087165afa889181610c1d575b50610c15575b5016938415610b8c5786516370a0823160e01b81529216838301819052938783602481845afa928315610b82579088918794610b4d575b5087516318160ddd60e01b815294859182905afa928315610b43578593610b14575b508215610b095790610ac891610966565b049385835260068152838320828452815283832054851115610b0057610afd9583526006815283832091835252205490610959565b90565b50509250505090565b505050509250505090565b9092508681813d8311610b3c575b610b2c81836108be565b810103126101b557519138610ab7565b503d610b22565b86513d87823e3d90fd5b8281939295503d8311610b7b575b610b6581836108be565b81010312610b77578790519238610a95565b8580fd5b503d610b5b565b87513d88823e3d90fd5b935095919082886024866002541694895195869384926331a9108f60e11b84528301525afa918215610b43579084918693610be6575b50169283911603610b0057610afd9583526006815283832091835252205490610959565b610c07919350843d8611610c0e575b610bff81836108be565b810190610979565b9138610bc2565b503d610bf5565b905038610a5e565b610c359192508b3d8d11610c0e57610bff81836108be565b9038610a58565b505050505050925050509056fea26469706673582212202cecb2405781c8f80479523bfee08b26864329ddb7535539b416f1225a5f1aa564736f6c63430008140033",
  "linkReferences": {},
  "deployedLinkReferences": {}
}